{
  "contractName": "FileSharing",
  "abi": [
    {
      "constant": true,
      "inputs": [],
      "name": "owner",
      "outputs": [
        {
          "name": "",
          "type": "address"
        }
      ],
      "payable": false,
      "stateMutability": "view",
      "type": "function"
    },
    {
      "inputs": [],
      "payable": false,
      "stateMutability": "nonpayable",
      "type": "constructor"
    },
    {
      "constant": false,
      "inputs": [],
      "name": "createFarm",
      "outputs": [
        {
          "name": "FarmId",
          "type": "uint256"
        }
      ],
      "payable": false,
      "stateMutability": "nonpayable",
      "type": "function"
    },
    {
      "constant": false,
      "inputs": [
        {
          "name": "FarmId",
          "type": "uint256"
        },
        {
          "name": "MerkleRoot",
          "type": "string"
        }
      ],
      "name": "createBatch",
      "outputs": [
        {
          "name": "BatchId",
          "type": "uint256"
        }
      ],
      "payable": false,
      "stateMutability": "nonpayable",
      "type": "function"
    },
    {
      "constant": false,
      "inputs": [
        {
          "name": "target",
          "type": "address"
        },
        {
          "name": "IPFShash",
          "type": "string"
        },
        {
          "name": "FarmId",
          "type": "uint256"
        },
        {
          "name": "key",
          "type": "string"
        }
      ],
      "name": "setPermission",
      "outputs": [],
      "payable": false,
      "stateMutability": "nonpayable",
      "type": "function"
    },
    {
      "constant": true,
      "inputs": [
        {
          "name": "target",
          "type": "address"
        },
        {
          "name": "IPFShash",
          "type": "string"
        }
      ],
      "name": "getPermission",
      "outputs": [
        {
          "name": "key",
          "type": "string"
        }
      ],
      "payable": false,
      "stateMutability": "view",
      "type": "function"
    },
    {
      "constant": true,
      "inputs": [
        {
          "name": "BatchId",
          "type": "uint256"
        },
        {
          "name": "hashToBeVerified",
          "type": "string"
        }
      ],
      "name": "verifyHash",
      "outputs": [
        {
          "name": "success",
          "type": "bool"
        }
      ],
      "payable": false,
      "stateMutability": "view",
      "type": "function"
    }
  ],
  "bytecode": "0x608060405234801561001057600080fd5b50336000806101000a81548173ffffffffffffffffffffffffffffffffffffffff021916908373ffffffffffffffffffffffffffffffffffffffff160217905550610cb0806100606000396000f3fe608060405234801561001057600080fd5b50600436106100625760003560e01c80631d5ec3cb1461006757806347c47949146100855780634b68c0011461020157806375c6e781146102da5780638586b2f0146103b75780638da5cb5b1461050b575b600080fd5b61006f610555565b6040518082815260200191505060405180910390f35b6101ff6004803603608081101561009b57600080fd5b81019080803573ffffffffffffffffffffffffffffffffffffffff169060200190929190803590602001906401000000008111156100d857600080fd5b8201836020820111156100ea57600080fd5b8035906020019184600183028401116401000000008311171561010c57600080fd5b91908080601f016020809104026020016040519081016040528093929190818152602001838380828437600081840152601f19601f820116905080830192505050505050509192919290803590602001909291908035906020019064010000000081111561017957600080fd5b82018360208201111561018b57600080fd5b803590602001918460018302840111640100000000831117156101ad57600080fd5b91908080601f016020809104026020016040519081016040528093929190818152602001838380828437600081840152601f19601f8201169050808301925050505050505091929192905050506105c5565b005b6102c46004803603604081101561021757600080fd5b81019080803590602001909291908035906020019064010000000081111561023e57600080fd5b82018360208201111561025057600080fd5b8035906020019184600183028401116401000000008311171561027257600080fd5b91908080601f016020809104026020016040519081016040528093929190818152602001838380828437600081840152601f19601f82011690508083019250505050505050919291929050505061073d565b6040518082815260200191505060405180910390f35b61039d600480360360408110156102f057600080fd5b81019080803590602001909291908035906020019064010000000081111561031757600080fd5b82018360208201111561032957600080fd5b8035906020019184600183028401116401000000008311171561034b57600080fd5b91908080601f016020809104026020016040519081016040528093929190818152602001838380828437600081840152601f19601f820116905080830192505050505050509192919290505050610873565b604051808215151515815260200191505060405180910390f35b610490600480360360408110156103cd57600080fd5b81019080803573ffffffffffffffffffffffffffffffffffffffff1690602001909291908035906020019064010000000081111561040a57600080fd5b82018360208201111561041c57600080fd5b8035906020019184600183028401116401000000008311171561043e57600080fd5b91908080601f016020809104026020016040519081016040528093929190818152602001838380828437600081840152601f19601f82011690508083019250505050505050919291929050505061097f565b6040518080602001828103825283818151815260200191508051906020019080838360005b838110156104d05780820151818401526020810190506104b5565b50505050905090810190601f1680156104fd5780820380516001836020036101000a031916815260200191505b509250505060405180910390f35b610513610ac8565b604051808273ffffffffffffffffffffffffffffffffffffffff1673ffffffffffffffffffffffffffffffffffffffff16815260200191505060405180910390f35b60006001600081548092919060010191905055503360036000600154815260200190815260200160002060006101000a81548173ffffffffffffffffffffffffffffffffffffffff021916908373ffffffffffffffffffffffffffffffffffffffff160217905550600154905090565b3373ffffffffffffffffffffffffffffffffffffffff166003600084815260200190815260200160002060009054906101000a900473ffffffffffffffffffffffffffffffffffffffff1673ffffffffffffffffffffffffffffffffffffffff161461067c576040517f08c379a000000000000000000000000000000000000000000000000000000000815260040180806020018281038252602d815260200180610c58602d913960400191505060405180910390fd5b806004846040518082805190602001908083835b602083106106b35780518252602082019150602081019050602083039250610690565b6001836020036101000a038019825116818451168082178552505050505050905001915050908152602001604051809103902060008673ffffffffffffffffffffffffffffffffffffffff1673ffffffffffffffffffffffffffffffffffffffff1681526020019081526020016000209080519060200190610736929190610aed565b5050505050565b60003373ffffffffffffffffffffffffffffffffffffffff166003600085815260200190815260200160002060009054906101000a900473ffffffffffffffffffffffffffffffffffffffff1673ffffffffffffffffffffffffffffffffffffffff16146107f6576040517f08c379a000000000000000000000000000000000000000000000000000000000815260040180806020018281038252602b815260200180610c2d602b913960400191505060405180910390fd5b600260008154809291906001019190505550610810610b6d565b604051806040016040528085815260200184815250905080600560006002548152602001908152602001600020600082015181600001556020820151816001019080519060200190610863929190610b87565b5090505060025491505092915050565b60006005600084815260200190815260200160002060010160405160200180828054600181600116156101000203166002900480156108e95780601f106108c75761010080835404028352918201916108e9565b820191906000526020600020905b8154815290600101906020018083116108d5575b505091505060405160208183030381529060405280519060200120826040516020018082805190602001908083835b6020831061093b5780518252602082019150602081019050602083039250610918565b6001836020036101000a0380198251168184511680821785525050505050509050019150506040516020818303038152906040528051906020012014905092915050565b60606004826040518082805190602001908083835b602083106109b75780518252602082019150602081019050602083039250610994565b6001836020036101000a038019825116818451168082178552505050505050905001915050908152602001604051809103902060008473ffffffffffffffffffffffffffffffffffffffff1673ffffffffffffffffffffffffffffffffffffffff1681526020019081526020016000208054600181600116156101000203166002900480601f016020809104026020016040519081016040528092919081815260200182805460018160011615610100020316600290048015610abb5780601f10610a9057610100808354040283529160200191610abb565b820191906000526020600020905b815481529060010190602001808311610a9e57829003601f168201915b5050505050905092915050565b6000809054906101000a900473ffffffffffffffffffffffffffffffffffffffff1681565b828054600181600116156101000203166002900490600052602060002090601f016020900481019282601f10610b2e57805160ff1916838001178555610b5c565b82800160010185558215610b5c579182015b82811115610b5b578251825591602001919060010190610b40565b5b509050610b699190610c07565b5090565b604051806040016040528060008152602001606081525090565b828054600181600116156101000203166002900490600052602060002090601f016020900481019282601f10610bc857805160ff1916838001178555610bf6565b82800160010185558215610bf6579182015b82811115610bf5578251825591602001919060010190610bda565b5b509050610c039190610c07565b5090565b610c2991905b80821115610c25576000816000905550600101610c0d565b5090565b9056fe4d757374206265206661726d206f776e657220696e206f7264657220746f206372656174652062617463684d757374206265206661726d206f776e657220696e206f7264657220746f20736574207065726d697373696f6ea165627a7a723058203eca2d5d3ca8ef7cccbda51309402a9ee3e7514769a29e6d6e891a8b67276bd10029",
  "source": "pragma solidity ^0.5.0;\n\ncontract FileSharing {\n\taddress public owner;\n\tuint FarmCount;\n\tuint BatchCount;\n\n\tstruct Batch {\n\t\tuint FarmId;\n\t\tstring MerkleRoot;\n\t}\n\n\tmapping (uint => address) FarmOwners;\n\tmapping (string => mapping(address => string)) Keys;\n\tmapping (uint => Batch) Batches;\n\n\tconstructor() public {\n\t\towner = msg.sender;\n\t}\n\n\tfunction createFarm() public returns (uint FarmId) {\n\t\tFarmCount++;\n\t\tFarmOwners[FarmCount] = msg.sender;\n\t\treturn FarmCount;\n\t}\n\n\tfunction createBatch(uint FarmId, string memory MerkleRoot) public returns (uint BatchId) {\n\t\trequire(FarmOwners[FarmId] == msg.sender, \"Must be farm owner in order to create batch\");\n\n\t\tBatchCount++;\n\t\tBatch memory b = Batch(FarmId, MerkleRoot);\n\t\tBatches[BatchCount] = b;\n\t\treturn BatchCount;\n\t}\n\n\tfunction setPermission(\n\t\taddress target,\n\t\tstring memory IPFShash,\n\t\tuint FarmId,\n\t\tstring memory key\n\t) public {\n\t\trequire(FarmOwners[FarmId] == msg.sender, \"Must be farm owner in order to set permission\");\n\n\t\tKeys[IPFShash][target] = key;\n\t}\n\n\tfunction getPermission(\n\t\taddress target,\n\t\tstring memory IPFShash\n\t) public view returns (string memory key) {\n\t\treturn Keys[IPFShash][target];\n\t}\n\n\tfunction verifyHash(\n\t\tuint BatchId,\n\t\tstring memory hashToBeVerified\n\t) public view returns (bool success) {\n\t\treturn (keccak256(abi.encodePacked(hashToBeVerified)) == keccak256(abi.encodePacked(Batches[BatchId].MerkleRoot)));\n\t}\n}\n",
  "sourcePath": "/home/lglap/Work/dapps/agriscm-data-sharing/contracts/FileSharing.sol",
  "compiler": {
    "name": "solc",
    "version": "0.5.8+commit.23d335f2.Emscripten.clang"
  },
  "schemaVersion": "3.0.10",
  "updatedAt": "2019-07-11T05:01:05.514Z",
  "devdoc": {
    "methods": {}
  },
  "userdoc": {
    "methods": {}
  }
}