{
  "contractName": "FileSharing",
  "abi": [
    {
      "constant": true,
      "inputs": [],
      "name": "FarmCount",
      "outputs": [
        {
          "name": "",
          "type": "uint256"
        }
      ],
      "payable": false,
      "stateMutability": "view",
      "type": "function"
    },
    {
      "constant": true,
      "inputs": [
        {
          "name": "",
          "type": "uint256"
        }
      ],
      "name": "Batches",
      "outputs": [
        {
          "name": "FarmId",
          "type": "uint256"
        },
        {
          "name": "MerkleRoot",
          "type": "string"
        }
      ],
      "payable": false,
      "stateMutability": "view",
      "type": "function"
    },
    {
      "constant": true,
      "inputs": [],
      "name": "owner",
      "outputs": [
        {
          "name": "",
          "type": "address"
        }
      ],
      "payable": false,
      "stateMutability": "view",
      "type": "function"
    },
    {
      "constant": true,
      "inputs": [],
      "name": "BatchCount",
      "outputs": [
        {
          "name": "",
          "type": "uint256"
        }
      ],
      "payable": false,
      "stateMutability": "view",
      "type": "function"
    },
    {
      "constant": true,
      "inputs": [
        {
          "name": "",
          "type": "uint256"
        }
      ],
      "name": "FarmOwners",
      "outputs": [
        {
          "name": "",
          "type": "address"
        }
      ],
      "payable": false,
      "stateMutability": "view",
      "type": "function"
    },
    {
      "inputs": [],
      "payable": false,
      "stateMutability": "nonpayable",
      "type": "constructor"
    },
    {
      "constant": false,
      "inputs": [],
      "name": "createFarm",
      "outputs": [
        {
          "name": "FarmId",
          "type": "uint256"
        }
      ],
      "payable": false,
      "stateMutability": "nonpayable",
      "type": "function"
    },
    {
      "constant": false,
      "inputs": [
        {
          "name": "FarmId",
          "type": "uint256"
        },
        {
          "name": "MerkleRoot",
          "type": "string"
        }
      ],
      "name": "createBatch",
      "outputs": [
        {
          "name": "BatchId",
          "type": "uint256"
        }
      ],
      "payable": false,
      "stateMutability": "nonpayable",
      "type": "function"
    },
    {
      "constant": false,
      "inputs": [
        {
          "name": "target",
          "type": "address"
        },
        {
          "name": "IPFShash",
          "type": "string"
        },
        {
          "name": "FarmId",
          "type": "uint256"
        },
        {
          "name": "key",
          "type": "string"
        }
      ],
      "name": "setPermission",
      "outputs": [
        {
          "name": "success",
          "type": "bool"
        }
      ],
      "payable": false,
      "stateMutability": "nonpayable",
      "type": "function"
    },
    {
      "constant": true,
      "inputs": [
        {
          "name": "IPFShash",
          "type": "string"
        }
      ],
      "name": "getPermission",
      "outputs": [
        {
          "name": "key",
          "type": "string"
        }
      ],
      "payable": false,
      "stateMutability": "view",
      "type": "function"
    },
    {
      "constant": true,
      "inputs": [
        {
          "name": "BatchId",
          "type": "uint256"
        },
        {
          "name": "hashToBeVerified",
          "type": "string"
        }
      ],
      "name": "verifyHash",
      "outputs": [
        {
          "name": "success",
          "type": "bool"
        }
      ],
      "payable": false,
      "stateMutability": "view",
      "type": "function"
    }
  ],
  "bytecode": "0x608060405234801561001057600080fd5b50336000806101000a81548173ffffffffffffffffffffffffffffffffffffffff021916908373ffffffffffffffffffffffffffffffffffffffff160217905550610f3e806100606000396000f3fe608060405234801561001057600080fd5b506004361061009e5760003560e01c806375c6e7811161006657806375c6e781146103fa5780638da5cb5b146104d75780639cb4fba6146105215780639e4833361461053f578063ddc46c62146105ad5761009e565b80630d4ec783146100a35780631d5ec3cb146100c15780633fc2a432146100df57806347c479491461018d5780634b68c00114610321575b600080fd5b6100ab6106e1565b6040518082815260200191505060405180910390f35b6100c96106e7565b6040518082815260200191505060405180910390f35b61010b600480360360208110156100f557600080fd5b8101908080359060200190929190505050610757565b6040518083815260200180602001828103825283818151815260200191508051906020019080838360005b83811015610151578082015181840152602081019050610136565b50505050905090810190601f16801561017e5780820380516001836020036101000a031916815260200191505b50935050505060405180910390f35b610307600480360360808110156101a357600080fd5b81019080803573ffffffffffffffffffffffffffffffffffffffff169060200190929190803590602001906401000000008111156101e057600080fd5b8201836020820111156101f257600080fd5b8035906020019184600183028401116401000000008311171561021457600080fd5b91908080601f016020809104026020016040519081016040528093929190818152602001838380828437600081840152601f19601f820116905080830192505050505050509192919290803590602001909291908035906020019064010000000081111561028157600080fd5b82018360208201111561029357600080fd5b803590602001918460018302840111640100000000831117156102b557600080fd5b91908080601f016020809104026020016040519081016040528093929190818152602001838380828437600081840152601f19601f820116905080830192505050505050509192919290505050610813565b604051808215151515815260200191505060405180910390f35b6103e46004803603604081101561033757600080fd5b81019080803590602001909291908035906020019064010000000081111561035e57600080fd5b82018360208201111561037057600080fd5b8035906020019184600183028401116401000000008311171561039257600080fd5b91908080601f016020809104026020016040519081016040528093929190818152602001838380828437600081840152601f19601f820116905080830192505050505050509192919290505050610993565b6040518082815260200191505060405180910390f35b6104bd6004803603604081101561041057600080fd5b81019080803590602001909291908035906020019064010000000081111561043757600080fd5b82018360208201111561044957600080fd5b8035906020019184600183028401116401000000008311171561046b57600080fd5b91908080601f016020809104026020016040519081016040528093929190818152602001838380828437600081840152601f19601f820116905080830192505050505050509192919290505050610ac9565b604051808215151515815260200191505060405180910390f35b6104df610bd5565b604051808273ffffffffffffffffffffffffffffffffffffffff1673ffffffffffffffffffffffffffffffffffffffff16815260200191505060405180910390f35b610529610bfa565b6040518082815260200191505060405180910390f35b61056b6004803603602081101561055557600080fd5b8101908080359060200190929190505050610c00565b604051808273ffffffffffffffffffffffffffffffffffffffff1673ffffffffffffffffffffffffffffffffffffffff16815260200191505060405180910390f35b610666600480360360208110156105c357600080fd5b81019080803590602001906401000000008111156105e057600080fd5b8201836020820111156105f257600080fd5b8035906020019184600183028401116401000000008311171561061457600080fd5b91908080601f016020809104026020016040519081016040528093929190818152602001838380828437600081840152601f19601f820116905080830192505050505050509192919290505050610c33565b6040518080602001828103825283818151815260200191508051906020019080838360005b838110156106a657808201518184015260208101905061068b565b50505050905090810190601f1680156106d35780820380516001836020036101000a031916815260200191505b509250505060405180910390f35b60015481565b60006001600081548092919060010191905055503360036000600154815260200190815260200160002060006101000a81548173ffffffffffffffffffffffffffffffffffffffff021916908373ffffffffffffffffffffffffffffffffffffffff160217905550600154905090565b6005602052806000526040600020600091509050806000015490806001018054600181600116156101000203166002900480601f0160208091040260200160405190810160405280929190818152602001828054600181600116156101000203166002900480156108095780601f106107de57610100808354040283529160200191610809565b820191906000526020600020905b8154815290600101906020018083116107ec57829003601f168201915b5050505050905082565b60003373ffffffffffffffffffffffffffffffffffffffff166003600085815260200190815260200160002060009054906101000a900473ffffffffffffffffffffffffffffffffffffffff1673ffffffffffffffffffffffffffffffffffffffff16146108cc576040517f08c379a000000000000000000000000000000000000000000000000000000000815260040180806020018281038252602d815260200180610ee6602d913960400191505060405180910390fd5b816004856040518082805190602001908083835b6020831061090357805182526020820191506020810190506020830392506108e0565b6001836020036101000a038019825116818451168082178552505050505050905001915050908152602001604051809103902060008773ffffffffffffffffffffffffffffffffffffffff1673ffffffffffffffffffffffffffffffffffffffff1681526020019081526020016000209080519060200190610986929190610d7b565b5060019050949350505050565b60003373ffffffffffffffffffffffffffffffffffffffff166003600085815260200190815260200160002060009054906101000a900473ffffffffffffffffffffffffffffffffffffffff1673ffffffffffffffffffffffffffffffffffffffff1614610a4c576040517f08c379a000000000000000000000000000000000000000000000000000000000815260040180806020018281038252602b815260200180610ebb602b913960400191505060405180910390fd5b600260008154809291906001019190505550610a66610dfb565b604051806040016040528085815260200184815250905080600560006002548152602001908152602001600020600082015181600001556020820151816001019080519060200190610ab9929190610e15565b5090505060025491505092915050565b6000600560008481526020019081526020016000206001016040516020018082805460018160011615610100020316600290048015610b3f5780601f10610b1d576101008083540402835291820191610b3f565b820191906000526020600020905b815481529060010190602001808311610b2b575b505091505060405160208183030381529060405280519060200120826040516020018082805190602001908083835b60208310610b915780518252602082019150602081019050602083039250610b6e565b6001836020036101000a0380198251168184511680821785525050505050509050019150506040516020818303038152906040528051906020012014905092915050565b6000809054906101000a900473ffffffffffffffffffffffffffffffffffffffff1681565b60025481565b60036020528060005260406000206000915054906101000a900473ffffffffffffffffffffffffffffffffffffffff1681565b60606004826040518082805190602001908083835b60208310610c6b5780518252602082019150602081019050602083039250610c48565b6001836020036101000a038019825116818451168082178552505050505050905001915050908152602001604051809103902060003373ffffffffffffffffffffffffffffffffffffffff1673ffffffffffffffffffffffffffffffffffffffff1681526020019081526020016000208054600181600116156101000203166002900480601f016020809104026020016040519081016040528092919081815260200182805460018160011615610100020316600290048015610d6f5780601f10610d4457610100808354040283529160200191610d6f565b820191906000526020600020905b815481529060010190602001808311610d5257829003601f168201915b50505050509050919050565b828054600181600116156101000203166002900490600052602060002090601f016020900481019282601f10610dbc57805160ff1916838001178555610dea565b82800160010185558215610dea579182015b82811115610de9578251825591602001919060010190610dce565b5b509050610df79190610e95565b5090565b604051806040016040528060008152602001606081525090565b828054600181600116156101000203166002900490600052602060002090601f016020900481019282601f10610e5657805160ff1916838001178555610e84565b82800160010185558215610e84579182015b82811115610e83578251825591602001919060010190610e68565b5b509050610e919190610e95565b5090565b610eb791905b80821115610eb3576000816000905550600101610e9b565b5090565b9056fe4d757374206265206661726d206f776e657220696e206f7264657220746f206372656174652062617463684d757374206265206661726d206f776e657220696e206f7264657220746f20736574207065726d697373696f6ea165627a7a72305820de0ffe3879c0b6bbd83cde2a20cebf2edff1c7eaa0a0a322cc28ee63198e250e0029",
  "source": "pragma solidity ^0.5.0;\n\ncontract FileSharing {\n\taddress public owner;\n\tuint public FarmCount;\n\tuint public BatchCount;\n\n\tstruct Batch {\n\t\tuint FarmId;\n\t\tstring MerkleRoot;\n\t}\n\n\tmapping (uint => address) public FarmOwners;\n\tmapping (string => mapping(address => string)) Keys;\n\tmapping (uint => Batch) public Batches;\n\n\tconstructor() public {\n\t\towner = msg.sender;\n\t}\n\n\tfunction createFarm() public returns (uint FarmId) {\n\t\tFarmCount++;\n\t\tFarmOwners[FarmCount] = msg.sender;\n\t\treturn FarmCount;\n\t}\n\n\tfunction createBatch(uint FarmId, string memory MerkleRoot) public returns (uint BatchId) {\n\t\trequire(FarmOwners[FarmId] == msg.sender, \"Must be farm owner in order to create batch\");\n\n\t\tBatchCount++;\n\t\tBatch memory b = Batch(FarmId, MerkleRoot);\n\t\tBatches[BatchCount] = b;\n\t\treturn BatchCount;\n\t}\n\n\tfunction setPermission(\n\t\taddress target,\n\t\tstring memory IPFShash,\n\t\tuint FarmId,\n\t\tstring memory key\n\t) public returns (bool success) {\n\t\trequire(FarmOwners[FarmId] == msg.sender, \"Must be farm owner in order to set permission\");\n\n\t\tKeys[IPFShash][target] = key;\n\t\treturn true;\n\t}\n\n\tfunction getPermission(\n\t\tstring memory IPFShash\n\t) public view returns (string memory key) {\n\t\treturn Keys[IPFShash][msg.sender];\n\t}\n\n\tfunction verifyHash(\n\t\tuint BatchId,\n\t\tstring memory hashToBeVerified\n\t) public view returns (bool success) {\n\t\treturn (keccak256(abi.encodePacked(hashToBeVerified)) == keccak256(abi.encodePacked(Batches[BatchId].MerkleRoot)));\n\t}\n}\n",
  "sourcePath": "/home/lglap/Work/dapps/agriscm-data-sharing/contracts/FileSharing.sol",
  "compiler": {
    "name": "solc",
    "version": "0.5.8+commit.23d335f2.Emscripten.clang"
  },
  "schemaVersion": "3.0.10",
  "updatedAt": "2019-07-16T08:32:06.747Z",
  "devdoc": {
    "methods": {}
  },
  "userdoc": {
    "methods": {}
  }
}